{
  "_format": "hh-sol-artifact-1",
  "contractName": "SimpleWallet",
  "sourceName": "contracts/SimpleWallet.sol",
  "abi": [
    {
      "anonymous": false,
      "inputs": [
        {
          "indexed": true,
          "internalType": "address",
          "name": "by",
          "type": "address"
        },
        {
          "indexed": false,
          "internalType": "uint256",
          "name": "amount",
          "type": "uint256"
        }
      ],
      "name": "Deposit",
      "type": "event"
    },
    {
      "anonymous": false,
      "inputs": [
        {
          "indexed": true,
          "internalType": "address",
          "name": "from",
          "type": "address"
        },
        {
          "indexed": true,
          "internalType": "address",
          "name": "to",
          "type": "address"
        },
        {
          "indexed": false,
          "internalType": "uint256",
          "name": "amount",
          "type": "uint256"
        }
      ],
      "name": "Transfer",
      "type": "event"
    },
    {
      "anonymous": false,
      "inputs": [
        {
          "indexed": true,
          "internalType": "address",
          "name": "by",
          "type": "address"
        },
        {
          "indexed": false,
          "internalType": "uint256",
          "name": "amount",
          "type": "uint256"
        }
      ],
      "name": "Withdrawal",
      "type": "event"
    },
    {
      "inputs": [
        {
          "internalType": "address",
          "name": "",
          "type": "address"
        }
      ],
      "name": "balances",
      "outputs": [
        {
          "internalType": "uint256",
          "name": "",
          "type": "uint256"
        }
      ],
      "stateMutability": "view",
      "type": "function"
    },
    {
      "inputs": [],
      "name": "contractBalance",
      "outputs": [
        {
          "internalType": "uint256",
          "name": "",
          "type": "uint256"
        }
      ],
      "stateMutability": "view",
      "type": "function"
    },
    {
      "inputs": [],
      "name": "deposit",
      "outputs": [],
      "stateMutability": "payable",
      "type": "function"
    },
    {
      "inputs": [
        {
          "internalType": "address",
          "name": "user",
          "type": "address"
        }
      ],
      "name": "getBalance",
      "outputs": [
        {
          "internalType": "uint256",
          "name": "",
          "type": "uint256"
        }
      ],
      "stateMutability": "view",
      "type": "function"
    },
    {
      "inputs": [
        {
          "internalType": "address",
          "name": "to",
          "type": "address"
        },
        {
          "internalType": "uint256",
          "name": "amount",
          "type": "uint256"
        }
      ],
      "name": "transfer",
      "outputs": [],
      "stateMutability": "nonpayable",
      "type": "function"
    },
    {
      "inputs": [
        {
          "internalType": "uint256",
          "name": "amount",
          "type": "uint256"
        }
      ],
      "name": "withdraw",
      "outputs": [],
      "stateMutability": "nonpayable",
      "type": "function"
    }
  ],
  "bytecode": "0x6080604052348015600f57600080fd5b50610bc98061001f6000396000f3fe6080604052600436106100555760003560e01c806327e235e31461005a5780632e1a7d4d146100975780638b7afe2e146100c0578063a9059cbb146100eb578063d0e30db014610114578063f8b2cb4f1461011e575b600080fd5b34801561006657600080fd5b50610081600480360381019061007c91906107ba565b61015b565b60405161008e9190610800565b60405180910390f35b3480156100a357600080fd5b506100be60048036038101906100b99190610847565b610173565b005b3480156100cc57600080fd5b506100d5610386565b6040516100e29190610800565b60405180910390f35b3480156100f757600080fd5b50610112600480360381019061010d9190610874565b61038e565b005b61011c610630565b005b34801561012a57600080fd5b50610145600480360381019061014091906107ba565b61070f565b6040516101529190610800565b60405180910390f35b60006020528060005260406000206000915090505481565b600081116101b6576040517f08c379a00000000000000000000000000000000000000000000000000000000081526004016101ad90610911565b60405180910390fd5b806000803373ffffffffffffffffffffffffffffffffffffffff1673ffffffffffffffffffffffffffffffffffffffff168152602001908152602001600020541015610237576040517f08c379a000000000000000000000000000000000000000000000000000000000815260040161022e9061097d565b60405180910390fd5b806000803373ffffffffffffffffffffffffffffffffffffffff1673ffffffffffffffffffffffffffffffffffffffff1681526020019081526020016000206000828254039250508190555060003373ffffffffffffffffffffffffffffffffffffffff16826108fc906040516102ad906109ce565b600060405180830381858888f193505050503d80600081146102eb576040519150601f19603f3d011682016040523d82523d6000602084013e6102f0565b606091505b5050905080610334576040517f08c379a000000000000000000000000000000000000000000000000000000000815260040161032b90610a2f565b60405180910390fd5b3373ffffffffffffffffffffffffffffffffffffffff167f7fcf532c15f0a6db0bd6d0e038bea71d30d808c7d98cb3bf7268a95bf5081b658360405161037a9190610800565b60405180910390a25050565b600047905090565b600073ffffffffffffffffffffffffffffffffffffffff168273ffffffffffffffffffffffffffffffffffffffff16036103fd576040517f08c379a00000000000000000000000000000000000000000000000000000000081526004016103f490610a9b565b60405180910390fd5b3373ffffffffffffffffffffffffffffffffffffffff168273ffffffffffffffffffffffffffffffffffffffff160361046b576040517f08c379a000000000000000000000000000000000000000000000000000000000815260040161046290610b07565b60405180910390fd5b600081116104ae576040517f08c379a00000000000000000000000000000000000000000000000000000000081526004016104a590610911565b60405180910390fd5b806000803373ffffffffffffffffffffffffffffffffffffffff1673ffffffffffffffffffffffffffffffffffffffff16815260200190815260200160002054101561052f576040517f08c379a00000000000000000000000000000000000000000000000000000000081526004016105269061097d565b60405180910390fd5b806000803373ffffffffffffffffffffffffffffffffffffffff1673ffffffffffffffffffffffffffffffffffffffff16815260200190815260200160002060008282540392505081905550806000808473ffffffffffffffffffffffffffffffffffffffff1673ffffffffffffffffffffffffffffffffffffffff168152602001908152602001600020600082825401925050819055508173ffffffffffffffffffffffffffffffffffffffff163373ffffffffffffffffffffffffffffffffffffffff167fddf252ad1be2c89b69c2b068fc378daa952ba7f163c4a11628f55a4df523b3ef836040516106249190610800565b60405180910390a35050565b60003411610673576040517f08c379a000000000000000000000000000000000000000000000000000000000815260040161066a90610b73565b60405180910390fd5b346000803373ffffffffffffffffffffffffffffffffffffffff1673ffffffffffffffffffffffffffffffffffffffff168152602001908152602001600020600082825401925050819055503373ffffffffffffffffffffffffffffffffffffffff167fe1fffcc4923d04b559f4d29a8bfc6cda04eb5b0d3c460751c2402c5c5cc9109c346040516107059190610800565b60405180910390a2565b60008060008373ffffffffffffffffffffffffffffffffffffffff1673ffffffffffffffffffffffffffffffffffffffff168152602001908152602001600020549050919050565b600080fd5b600073ffffffffffffffffffffffffffffffffffffffff82169050919050565b60006107878261075c565b9050919050565b6107978161077c565b81146107a257600080fd5b50565b6000813590506107b48161078e565b92915050565b6000602082840312156107d0576107cf610757565b5b60006107de848285016107a5565b91505092915050565b6000819050919050565b6107fa816107e7565b82525050565b600060208201905061081560008301846107f1565b92915050565b610824816107e7565b811461082f57600080fd5b50565b6000813590506108418161081b565b92915050565b60006020828403121561085d5761085c610757565b5b600061086b84828501610832565b91505092915050565b6000806040838503121561088b5761088a610757565b5b6000610899858286016107a5565b92505060206108aa85828601610832565b9150509250929050565b600082825260208201905092915050565b7f416d6f756e74206d757374206265203e20300000000000000000000000000000600082015250565b60006108fb6012836108b4565b9150610906826108c5565b602082019050919050565b6000602082019050818103600083015261092a816108ee565b9050919050565b7f496e73756666696369656e742062616c616e6365000000000000000000000000600082015250565b60006109676014836108b4565b915061097282610931565b602082019050919050565b600060208201905081810360008301526109968161095a565b9050919050565b600081905092915050565b50565b60006109b860008361099d565b91506109c3826109a8565b600082019050919050565b60006109d9826109ab565b9150819050919050565b7f5472616e73666572206661696c65640000000000000000000000000000000000600082015250565b6000610a19600f836108b4565b9150610a24826109e3565b602082019050919050565b60006020820190508181036000830152610a4881610a0c565b9050919050565b7f496e76616c696420616464726573730000000000000000000000000000000000600082015250565b6000610a85600f836108b4565b9150610a9082610a4f565b602082019050919050565b60006020820190508181036000830152610ab481610a78565b9050919050565b7f43616e6e6f742073656e6420746f20796f757273656c66000000000000000000600082015250565b6000610af16017836108b4565b9150610afc82610abb565b602082019050919050565b60006020820190508181036000830152610b2081610ae4565b9050919050565b7f53656e6420736f6d652045544800000000000000000000000000000000000000600082015250565b6000610b5d600d836108b4565b9150610b6882610b27565b602082019050919050565b60006020820190508181036000830152610b8c81610b50565b905091905056fea2646970667358221220228897a313f4e16b079fc77f74f35d1d79582e44924ed76c0876e1b3f59926d564736f6c634300081c0033",
  "linkReferences": {},
  "deployedLinkReferences": {}
}