{
  "_format": "hh-sol-artifact-1",
  "contractName": "DAO",
  "sourceName": "contracts/DAO.sol",
  "abi": [
    {
      "inputs": [],
      "stateMutability": "nonpayable",
      "type": "constructor"
    },
    {
      "anonymous": false,
      "inputs": [
        {
          "indexed": true,
          "internalType": "uint256",
          "name": "proposalId",
          "type": "uint256"
        },
        {
          "indexed": false,
          "internalType": "uint256",
          "name": "amount",
          "type": "uint256"
        },
        {
          "indexed": false,
          "internalType": "uint256",
          "name": "timestamp",
          "type": "uint256"
        }
      ],
      "name": "FundsAllocated",
      "type": "event"
    },
    {
      "anonymous": false,
      "inputs": [
        {
          "indexed": true,
          "internalType": "address",
          "name": "from",
          "type": "address"
        },
        {
          "indexed": true,
          "internalType": "address",
          "name": "to",
          "type": "address"
        },
        {
          "indexed": false,
          "internalType": "uint256",
          "name": "amount",
          "type": "uint256"
        },
        {
          "indexed": false,
          "internalType": "uint256",
          "name": "timestamp",
          "type": "uint256"
        }
      ],
      "name": "FundsTransferred",
      "type": "event"
    },
    {
      "anonymous": false,
      "inputs": [
        {
          "indexed": true,
          "internalType": "uint256",
          "name": "proposalId",
          "type": "uint256"
        },
        {
          "indexed": false,
          "internalType": "string",
          "name": "title",
          "type": "string"
        },
        {
          "indexed": true,
          "internalType": "address",
          "name": "creator",
          "type": "address"
        },
        {
          "indexed": false,
          "internalType": "uint256",
          "name": "timestamp",
          "type": "uint256"
        }
      ],
      "name": "ProposalCreated",
      "type": "event"
    },
    {
      "anonymous": false,
      "inputs": [
        {
          "indexed": false,
          "internalType": "uint256",
          "name": "totalFunds",
          "type": "uint256"
        },
        {
          "indexed": false,
          "internalType": "uint256",
          "name": "allocated",
          "type": "uint256"
        },
        {
          "indexed": false,
          "internalType": "uint256",
          "name": "available",
          "type": "uint256"
        }
      ],
      "name": "TreasuryUpdated",
      "type": "event"
    },
    {
      "anonymous": false,
      "inputs": [
        {
          "indexed": true,
          "internalType": "uint256",
          "name": "proposalId",
          "type": "uint256"
        },
        {
          "indexed": true,
          "internalType": "address",
          "name": "voter",
          "type": "address"
        },
        {
          "indexed": false,
          "internalType": "string",
          "name": "vote",
          "type": "string"
        },
        {
          "indexed": false,
          "internalType": "uint256",
          "name": "timestamp",
          "type": "uint256"
        }
      ],
      "name": "VoteCasted",
      "type": "event"
    },
    {
      "inputs": [
        {
          "internalType": "uint256",
          "name": "_proposalId",
          "type": "uint256"
        },
        {
          "internalType": "uint256",
          "name": "_amount",
          "type": "uint256"
        }
      ],
      "name": "allocateFunds",
      "outputs": [],
      "stateMutability": "nonpayable",
      "type": "function"
    },
    {
      "inputs": [
        {
          "internalType": "string",
          "name": "_title",
          "type": "string"
        },
        {
          "internalType": "string",
          "name": "_description",
          "type": "string"
        },
        {
          "internalType": "uint256",
          "name": "_fundsRequested",
          "type": "uint256"
        }
      ],
      "name": "createProposal",
      "outputs": [
        {
          "internalType": "uint256",
          "name": "",
          "type": "uint256"
        }
      ],
      "stateMutability": "nonpayable",
      "type": "function"
    },
    {
      "inputs": [
        {
          "internalType": "uint256",
          "name": "_proposalId",
          "type": "uint256"
        }
      ],
      "name": "executeProposal",
      "outputs": [],
      "stateMutability": "nonpayable",
      "type": "function"
    },
    {
      "inputs": [],
      "name": "getAllProposals",
      "outputs": [
        {
          "components": [
            {
              "internalType": "uint256",
              "name": "id",
              "type": "uint256"
            },
            {
              "internalType": "string",
              "name": "title",
              "type": "string"
            },
            {
              "internalType": "string",
              "name": "description",
              "type": "string"
            },
            {
              "internalType": "address",
              "name": "creator",
              "type": "address"
            },
            {
              "internalType": "uint256",
              "name": "createdAt",
              "type": "uint256"
            },
            {
              "internalType": "uint256",
              "name": "votesYes",
              "type": "uint256"
            },
            {
              "internalType": "uint256",
              "name": "votesNo",
              "type": "uint256"
            },
            {
              "internalType": "bool",
              "name": "executed",
              "type": "bool"
            },
            {
              "internalType": "uint256",
              "name": "fundsRequested",
              "type": "uint256"
            }
          ],
          "internalType": "struct DAO.Proposal[]",
          "name": "",
          "type": "tuple[]"
        }
      ],
      "stateMutability": "view",
      "type": "function"
    },
    {
      "inputs": [
        {
          "internalType": "uint256",
          "name": "_proposalId",
          "type": "uint256"
        }
      ],
      "name": "getProposal",
      "outputs": [
        {
          "components": [
            {
              "internalType": "uint256",
              "name": "id",
              "type": "uint256"
            },
            {
              "internalType": "string",
              "name": "title",
              "type": "string"
            },
            {
              "internalType": "string",
              "name": "description",
              "type": "string"
            },
            {
              "internalType": "address",
              "name": "creator",
              "type": "address"
            },
            {
              "internalType": "uint256",
              "name": "createdAt",
              "type": "uint256"
            },
            {
              "internalType": "uint256",
              "name": "votesYes",
              "type": "uint256"
            },
            {
              "internalType": "uint256",
              "name": "votesNo",
              "type": "uint256"
            },
            {
              "internalType": "bool",
              "name": "executed",
              "type": "bool"
            },
            {
              "internalType": "uint256",
              "name": "fundsRequested",
              "type": "uint256"
            }
          ],
          "internalType": "struct DAO.Proposal",
          "name": "",
          "type": "tuple"
        }
      ],
      "stateMutability": "view",
      "type": "function"
    },
    {
      "inputs": [],
      "name": "getTreasuryBalance",
      "outputs": [
        {
          "internalType": "uint256",
          "name": "",
          "type": "uint256"
        }
      ],
      "stateMutability": "view",
      "type": "function"
    },
    {
      "inputs": [],
      "name": "getTreasuryStatus",
      "outputs": [
        {
          "internalType": "uint256",
          "name": "_totalFunds",
          "type": "uint256"
        },
        {
          "internalType": "uint256",
          "name": "_allocated",
          "type": "uint256"
        },
        {
          "internalType": "uint256",
          "name": "_available",
          "type": "uint256"
        }
      ],
      "stateMutability": "view",
      "type": "function"
    },
    {
      "inputs": [
        {
          "internalType": "uint256",
          "name": "_proposalId",
          "type": "uint256"
        },
        {
          "internalType": "address",
          "name": "_voter",
          "type": "address"
        }
      ],
      "name": "getUserVote",
      "outputs": [
        {
          "internalType": "string",
          "name": "",
          "type": "string"
        }
      ],
      "stateMutability": "view",
      "type": "function"
    },
    {
      "inputs": [
        {
          "internalType": "uint256",
          "name": "_proposalId",
          "type": "uint256"
        },
        {
          "internalType": "address",
          "name": "_voter",
          "type": "address"
        }
      ],
      "name": "hasUserVoted",
      "outputs": [
        {
          "internalType": "bool",
          "name": "",
          "type": "bool"
        }
      ],
      "stateMutability": "view",
      "type": "function"
    },
    {
      "inputs": [
        {
          "internalType": "uint256",
          "name": "",
          "type": "uint256"
        },
        {
          "internalType": "address",
          "name": "",
          "type": "address"
        }
      ],
      "name": "hasVoted",
      "outputs": [
        {
          "internalType": "bool",
          "name": "",
          "type": "bool"
        }
      ],
      "stateMutability": "view",
      "type": "function"
    },
    {
      "inputs": [],
      "name": "owner",
      "outputs": [
        {
          "internalType": "address",
          "name": "",
          "type": "address"
        }
      ],
      "stateMutability": "view",
      "type": "function"
    },
    {
      "inputs": [],
      "name": "proposalCount",
      "outputs": [
        {
          "internalType": "uint256",
          "name": "",
          "type": "uint256"
        }
      ],
      "stateMutability": "view",
      "type": "function"
    },
    {
      "inputs": [
        {
          "internalType": "uint256",
          "name": "",
          "type": "uint256"
        }
      ],
      "name": "proposals",
      "outputs": [
        {
          "internalType": "uint256",
          "name": "id",
          "type": "uint256"
        },
        {
          "internalType": "string",
          "name": "title",
          "type": "string"
        },
        {
          "internalType": "string",
          "name": "description",
          "type": "string"
        },
        {
          "internalType": "address",
          "name": "creator",
          "type": "address"
        },
        {
          "internalType": "uint256",
          "name": "createdAt",
          "type": "uint256"
        },
        {
          "internalType": "uint256",
          "name": "votesYes",
          "type": "uint256"
        },
        {
          "internalType": "uint256",
          "name": "votesNo",
          "type": "uint256"
        },
        {
          "internalType": "bool",
          "name": "executed",
          "type": "bool"
        },
        {
          "internalType": "uint256",
          "name": "fundsRequested",
          "type": "uint256"
        }
      ],
      "stateMutability": "view",
      "type": "function"
    },
    {
      "inputs": [
        {
          "internalType": "address payable",
          "name": "_recipient",
          "type": "address"
        },
        {
          "internalType": "uint256",
          "name": "_amount",
          "type": "uint256"
        }
      ],
      "name": "transferFromTreasury",
      "outputs": [],
      "stateMutability": "nonpayable",
      "type": "function"
    },
    {
      "inputs": [],
      "name": "treasury",
      "outputs": [
        {
          "internalType": "uint256",
          "name": "totalFunds",
          "type": "uint256"
        },
        {
          "internalType": "uint256",
          "name": "allocated",
          "type": "uint256"
        },
        {
          "internalType": "uint256",
          "name": "available",
          "type": "uint256"
        }
      ],
      "stateMutability": "view",
      "type": "function"
    },
    {
      "inputs": [
        {
          "internalType": "uint256",
          "name": "_proposalId",
          "type": "uint256"
        },
        {
          "internalType": "bool",
          "name": "_voteYes",
          "type": "bool"
        }
      ],
      "name": "vote",
      "outputs": [],
      "stateMutability": "nonpayable",
      "type": "function"
    },
    {
      "inputs": [
        {
          "internalType": "uint256",
          "name": "",
          "type": "uint256"
        },
        {
          "internalType": "address",
          "name": "",
          "type": "address"
        }
      ],
      "name": "votes",
      "outputs": [
        {
          "internalType": "string",
          "name": "",
          "type": "string"
        }
      ],
      "stateMutability": "view",
      "type": "function"
    },
    {
      "stateMutability": "payable",
      "type": "receive"
    }
  ],
  "bytecode": "0x60806040526000600355348015601457600080fd5b5033600460006101000a81548173ffffffffffffffffffffffffffffffffffffffff021916908373ffffffffffffffffffffffffffffffffffffffff1602179055506040518060600160405280600081526020016000815260200160008152506005600082015181600001556020820151816001015560408201518160020155905050612cd3806100a66000396000f3fe6080604052600436106101025760003560e01c80638da5cb5b11610095578063cceb68f511610064578063cceb68f5146103de578063d23254b414610409578063da35c66414610446578063dc296ae114610471578063df1b32b3146104ae57610179565b80638da5cb5b146103225780639b5655dc1461034d578063c7f758a814610378578063c9d27afe146103b557610179565b8063328fb510116100d1578063328fb51014610266578063438596321461028f57806348a490fb146102cc57806361d027b3146102f557610179565b8063013cf08b1461017e57806303c7881a146101c35780630ce0ebf4146102005780630d61b5191461023d57610179565b3661017957346005600001600082825461011c9190611acb565b92505081905550476005600201819055507f92ee243cfd53da4fb486e62b9607936f636deed6fe4c4f6d9dbec0be25ba816d60056000015460056001015460056002015460405161016f93929190611b0e565b60405180910390a1005b600080fd5b34801561018a57600080fd5b506101a560048036038101906101a09190611b85565b6104db565b6040516101ba99989796959493929190611c9e565b60405180910390f35b3480156101cf57600080fd5b506101ea60048036038101906101e59190611d65565b610666565b6040516101f79190611da5565b60405180910390f35b34801561020c57600080fd5b5061022760048036038101906102229190611efc565b610749565b6040516102349190611f87565b60405180910390f35b34801561024957600080fd5b50610264600480360381019061025f9190611b85565b610985565b005b34801561027257600080fd5b5061028d60048036038101906102889190611fa2565b610aef565b005b34801561029b57600080fd5b506102b660048036038101906102b19190611d65565b610d14565b6040516102c39190611fe2565b60405180910390f35b3480156102d857600080fd5b506102f360048036038101906102ee919061203b565b610d43565b005b34801561030157600080fd5b5061030a610fe0565b60405161031993929190611b0e565b60405180910390f35b34801561032e57600080fd5b50610337610ff8565b604051610344919061207b565b60405180910390f35b34801561035957600080fd5b5061036261101e565b60405161036f9190611f87565b60405180910390f35b34801561038457600080fd5b5061039f600480360381019061039a9190611b85565b611026565b6040516103ac91906121d9565b60405180910390f35b3480156103c157600080fd5b506103dc60048036038101906103d79190612227565b61126b565b005b3480156103ea57600080fd5b506103f3611660565b60405161040091906123f5565b60405180910390f35b34801561041557600080fd5b50610430600480360381019061042b9190611d65565b6118f6565b60405161043d9190611da5565b60405180910390f35b34801561045257600080fd5b5061045b6119a3565b6040516104689190611f87565b60405180910390f35b34801561047d57600080fd5b5061049860048036038101906104939190611d65565b6119a9565b6040516104a59190611fe2565b60405180910390f35b3480156104ba57600080fd5b506104c3611a11565b6040516104d293929190611b0e565b60405180910390f35b600060205280600052604060002060009150905080600001549080600101805461050490612446565b80601f016020809104026020016040519081016040528092919081815260200182805461053090612446565b801561057d5780601f106105525761010080835404028352916020019161057d565b820191906000526020600020905b81548152906001019060200180831161056057829003601f168201915b50505050509080600201805461059290612446565b80601f01602080910402602001604051908101604052809291908181526020018280546105be90612446565b801561060b5780601f106105e05761010080835404028352916020019161060b565b820191906000526020600020905b8154815290600101906020018083116105ee57829003601f168201915b5050505050908060030160009054906101000a900473ffffffffffffffffffffffffffffffffffffffff16908060040154908060050154908060060154908060070160009054906101000a900460ff16908060080154905089565b60606002600084815260200190815260200160002060008373ffffffffffffffffffffffffffffffffffffffff1673ffffffffffffffffffffffffffffffffffffffff16815260200190815260200160002080546106c390612446565b80601f01602080910402602001604051908101604052809291908181526020018280546106ef90612446565b801561073c5780601f106107115761010080835404028352916020019161073c565b820191906000526020600020905b81548152906001019060200180831161071f57829003601f168201915b5050505050905092915050565b60008084511161078e576040517f08c379a0000000000000000000000000000000000000000000000000000000008152600401610785906124c3565b60405180910390fd5b60008351116107d2576040517f08c379a00000000000000000000000000000000000000000000000000000000081526004016107c99061252f565b60405180910390fd5b6001600360008282546107e59190611acb565b92505081905550600060035490506040518061012001604052808281526020018681526020018581526020013373ffffffffffffffffffffffffffffffffffffffff16815260200142815260200160008152602001600081526020016000151581526020018481525060008083815260200190815260200160002060008201518160000155602082015181600101908161087f91906126fb565b50604082015181600201908161089591906126fb565b5060608201518160030160006101000a81548173ffffffffffffffffffffffffffffffffffffffff021916908373ffffffffffffffffffffffffffffffffffffffff1602179055506080820151816004015560a0820151816005015560c0820151816006015560e08201518160070160006101000a81548160ff02191690831515021790555061010082015181600801559050503373ffffffffffffffffffffffffffffffffffffffff16817f9cc3d9dd626042cdefb76484b91708c3207b637214b44f20111c893548d9c85f87426040516109729291906127cd565b60405180910390a3809150509392505050565b600460009054906101000a900473ffffffffffffffffffffffffffffffffffffffff1673ffffffffffffffffffffffffffffffffffffffff163373ffffffffffffffffffffffffffffffffffffffff1614610a15576040517f08c379a0000000000000000000000000000000000000000000000000000000008152600401610a0c90612849565b60405180910390fd5b600081118015610a2757506003548111155b610a66576040517f08c379a0000000000000000000000000000000000000000000000000000000008152600401610a5d906128b5565b60405180910390fd5b600080600083815260200190815260200160002090508060070160009054906101000a900460ff1615610ace576040517f08c379a0000000000000000000000000000000000000000000000000000000008152600401610ac590612921565b60405180910390fd5b60018160070160006101000a81548160ff0219169083151502179055505050565b600460009054906101000a900473ffffffffffffffffffffffffffffffffffffffff1673ffffffffffffffffffffffffffffffffffffffff163373ffffffffffffffffffffffffffffffffffffffff1614610b7f576040517f08c379a0000000000000000000000000000000000000000000000000000000008152600401610b7690612849565b60405180910390fd5b600082118015610b9157506003548211155b610bd0576040517f08c379a0000000000000000000000000000000000000000000000000000000008152600401610bc7906128b5565b60405180910390fd5b60008111610c13576040517f08c379a0000000000000000000000000000000000000000000000000000000008152600401610c0a9061298d565b60405180910390fd5b80471015610c56576040517f08c379a0000000000000000000000000000000000000000000000000000000008152600401610c4d906129f9565b60405180910390fd5b8060056001016000828254610c6b9190611acb565b9250508190555060056001015447610c839190612a19565b600560020181905550817fc0a79f21f196b4ee5a242474a85cb9aa5fc2ce59ecc884d7271f1c2bd19b9a138242604051610cbe929190612a4d565b60405180910390a27f92ee243cfd53da4fb486e62b9607936f636deed6fe4c4f6d9dbec0be25ba816d600560000154600560010154600560020154604051610d0893929190611b0e565b60405180910390a15050565b60016020528160005260406000206020528060005260406000206000915091509054906101000a900460ff1681565b600460009054906101000a900473ffffffffffffffffffffffffffffffffffffffff1673ffffffffffffffffffffffffffffffffffffffff163373ffffffffffffffffffffffffffffffffffffffff1614610dd3576040517f08c379a0000000000000000000000000000000000000000000000000000000008152600401610dca90612849565b60405180910390fd5b600073ffffffffffffffffffffffffffffffffffffffff168273ffffffffffffffffffffffffffffffffffffffff1603610e42576040517f08c379a0000000000000000000000000000000000000000000000000000000008152600401610e3990612ac2565b60405180910390fd5b60008111610e85576040517f08c379a0000000000000000000000000000000000000000000000000000000008152600401610e7c9061298d565b60405180910390fd5b80471015610ec8576040517f08c379a0000000000000000000000000000000000000000000000000000000008152600401610ebf906129f9565b60405180910390fd5b60008273ffffffffffffffffffffffffffffffffffffffff1682604051610eee90612b13565b60006040518083038185875af1925050503d8060008114610f2b576040519150601f19603f3d011682016040523d82523d6000602084013e610f30565b606091505b5050905080610f74576040517f08c379a0000000000000000000000000000000000000000000000000000000008152600401610f6b90612b74565b60405180910390fd5b8273ffffffffffffffffffffffffffffffffffffffff163073ffffffffffffffffffffffffffffffffffffffff167fbd8ba14b7834d50f4d38587359558952e7e638273e9c027fbfa7d41b364e98258442604051610fd3929190612a4d565b60405180910390a3505050565b60058060000154908060010154908060020154905083565b600460009054906101000a900473ffffffffffffffffffffffffffffffffffffffff1681565b600047905090565b61102e611a2e565b60008211801561104057506003548211155b61107f576040517f08c379a0000000000000000000000000000000000000000000000000000000008152600401611076906128b5565b60405180910390fd5b60008083815260200190815260200160002060405180610120016040529081600082015481526020016001820180546110b790612446565b80601f01602080910402602001604051908101604052809291908181526020018280546110e390612446565b80156111305780601f1061110557610100808354040283529160200191611130565b820191906000526020600020905b81548152906001019060200180831161111357829003601f168201915b5050505050815260200160028201805461114990612446565b80601f016020809104026020016040519081016040528092919081815260200182805461117590612446565b80156111c25780601f10611197576101008083540402835291602001916111c2565b820191906000526020600020905b8154815290600101906020018083116111a557829003601f168201915b505050505081526020016003820160009054906101000a900473ffffffffffffffffffffffffffffffffffffffff1673ffffffffffffffffffffffffffffffffffffffff1673ffffffffffffffffffffffffffffffffffffffff1681526020016004820154815260200160058201548152602001600682015481526020016007820160009054906101000a900460ff161515151581526020016008820154815250509050919050565b60008211801561127d57506003548211155b6112bc576040517f08c379a00000000000000000000000000000000000000000000000000000000081526004016112b3906128b5565b60405180910390fd5b6001600083815260200190815260200160002060003373ffffffffffffffffffffffffffffffffffffffff1673ffffffffffffffffffffffffffffffffffffffff16815260200190815260200160002060009054906101000a900460ff161561135a576040517f08c379a000000000000000000000000000000000000000000000000000000000815260040161135190612c06565b60405180910390fd5b600080600084815260200190815260200160002090508060070160009054906101000a900460ff16156113c2576040517f08c379a00000000000000000000000000000000000000000000000000000000081526004016113b990612921565b60405180910390fd5b600180600085815260200190815260200160002060003373ffffffffffffffffffffffffffffffffffffffff1673ffffffffffffffffffffffffffffffffffffffff16815260200190815260200160002060006101000a81548160ff02191690831515021790555081156114e45760018160050160008282546114459190611acb565b925050819055506040518060400160405280600381526020017f79657300000000000000000000000000000000000000000000000000000000008152506002600085815260200190815260200160002060003373ffffffffffffffffffffffffffffffffffffffff1673ffffffffffffffffffffffffffffffffffffffff16815260200190815260200160002090816114de91906126fb565b50611594565b60018160060160008282546114f99190611acb565b925050819055506040518060400160405280600281526020017f6e6f0000000000000000000000000000000000000000000000000000000000008152506002600085815260200190815260200160002060003373ffffffffffffffffffffffffffffffffffffffff1673ffffffffffffffffffffffffffffffffffffffff168152602001908152602001600020908161159291906126fb565b505b3373ffffffffffffffffffffffffffffffffffffffff16837fb12f2a276712f545ab7cd0a4a4d18795239b2bb7d9a6bd53628b7c89c2b2192d8461160d576040518060400160405280600281526020017f6e6f000000000000000000000000000000000000000000000000000000000000815250611644565b6040518060400160405280600381526020017f79657300000000000000000000000000000000000000000000000000000000008152505b426040516116539291906127cd565b60405180910390a3505050565b6060600060035467ffffffffffffffff8111156116805761167f611dd1565b5b6040519080825280602002602001820160405280156116b957816020015b6116a6611a2e565b81526020019060019003908161169e5790505b5090506000600190505b60035481116118ee57600080828152602001908152602001600020604051806101200160405290816000820154815260200160018201805461170490612446565b80601f016020809104026020016040519081016040528092919081815260200182805461173090612446565b801561177d5780601f106117525761010080835404028352916020019161177d565b820191906000526020600020905b81548152906001019060200180831161176057829003601f168201915b5050505050815260200160028201805461179690612446565b80601f01602080910402602001604051908101604052809291908181526020018280546117c290612446565b801561180f5780601f106117e45761010080835404028352916020019161180f565b820191906000526020600020905b8154815290600101906020018083116117f257829003601f168201915b505050505081526020016003820160009054906101000a900473ffffffffffffffffffffffffffffffffffffffff1673ffffffffffffffffffffffffffffffffffffffff1673ffffffffffffffffffffffffffffffffffffffff1681526020016004820154815260200160058201548152602001600682015481526020016007820160009054906101000a900460ff16151515158152602001600882015481525050826001836118bf9190612a19565b815181106118d0576118cf612c26565b5b602002602001018190525080806118e690612c55565b9150506116c3565b508091505090565b600260205281600052604060002060205280600052604060002060009150915050805461192290612446565b80601f016020809104026020016040519081016040528092919081815260200182805461194e90612446565b801561199b5780601f106119705761010080835404028352916020019161199b565b820191906000526020600020905b81548152906001019060200180831161197e57829003601f168201915b505050505081565b60035481565b60006001600084815260200190815260200160002060008373ffffffffffffffffffffffffffffffffffffffff1673ffffffffffffffffffffffffffffffffffffffff16815260200190815260200160002060009054906101000a900460ff16905092915050565b600080600060056000015460056001015447925092509250909192565b604051806101200160405280600081526020016060815260200160608152602001600073ffffffffffffffffffffffffffffffffffffffff168152602001600081526020016000815260200160008152602001600015158152602001600081525090565b6000819050919050565b7f4e487b7100000000000000000000000000000000000000000000000000000000600052601160045260246000fd5b6000611ad682611a92565b9150611ae183611a92565b9250828201905080821115611af957611af8611a9c565b5b92915050565b611b0881611a92565b82525050565b6000606082019050611b236000830186611aff565b611b306020830185611aff565b611b3d6040830184611aff565b949350505050565b6000604051905090565b600080fd5b600080fd5b611b6281611a92565b8114611b6d57600080fd5b50565b600081359050611b7f81611b59565b92915050565b600060208284031215611b9b57611b9a611b4f565b5b6000611ba984828501611b70565b91505092915050565b600081519050919050565b600082825260208201905092915050565b60005b83811015611bec578082015181840152602081019050611bd1565b60008484015250505050565b6000601f19601f8301169050919050565b6000611c1482611bb2565b611c1e8185611bbd565b9350611c2e818560208601611bce565b611c3781611bf8565b840191505092915050565b600073ffffffffffffffffffffffffffffffffffffffff82169050919050565b6000611c6d82611c42565b9050919050565b611c7d81611c62565b82525050565b60008115159050919050565b611c9881611c83565b82525050565b600061012082019050611cb4600083018c611aff565b8181036020830152611cc6818b611c09565b90508181036040830152611cda818a611c09565b9050611ce96060830189611c74565b611cf66080830188611aff565b611d0360a0830187611aff565b611d1060c0830186611aff565b611d1d60e0830185611c8f565b611d2b610100830184611aff565b9a9950505050505050505050565b611d4281611c62565b8114611d4d57600080fd5b50565b600081359050611d5f81611d39565b92915050565b60008060408385031215611d7c57611d7b611b4f565b5b6000611d8a85828601611b70565b9250506020611d9b85828601611d50565b9150509250929050565b60006020820190508181036000830152611dbf8184611c09565b905092915050565b600080fd5b600080fd5b7f4e487b7100000000000000000000000000000000000000000000000000000000600052604160045260246000fd5b611e0982611bf8565b810181811067ffffffffffffffff82111715611e2857611e27611dd1565b5b80604052505050565b6000611e3b611b45565b9050611e478282611e00565b919050565b600067ffffffffffffffff821115611e6757611e66611dd1565b5b611e7082611bf8565b9050602081019050919050565b82818337600083830152505050565b6000611e9f611e9a84611e4c565b611e31565b905082815260208101848484011115611ebb57611eba611dcc565b5b611ec6848285611e7d565b509392505050565b600082601f830112611ee357611ee2611dc7565b5b8135611ef3848260208601611e8c565b91505092915050565b600080600060608486031215611f1557611f14611b4f565b5b600084013567ffffffffffffffff811115611f3357611f32611b54565b5b611f3f86828701611ece565b935050602084013567ffffffffffffffff811115611f6057611f5f611b54565b5b611f6c86828701611ece565b9250506040611f7d86828701611b70565b9150509250925092565b6000602082019050611f9c6000830184611aff565b92915050565b60008060408385031215611fb957611fb8611b4f565b5b6000611fc785828601611b70565b9250506020611fd885828601611b70565b9150509250929050565b6000602082019050611ff76000830184611c8f565b92915050565b600061200882611c42565b9050919050565b61201881611ffd565b811461202357600080fd5b50565b6000813590506120358161200f565b92915050565b6000806040838503121561205257612051611b4f565b5b600061206085828601612026565b925050602061207185828601611b70565b9150509250929050565b60006020820190506120906000830184611c74565b92915050565b61209f81611a92565b82525050565b600082825260208201905092915050565b60006120c182611bb2565b6120cb81856120a5565b93506120db818560208601611bce565b6120e481611bf8565b840191505092915050565b6120f881611c62565b82525050565b61210781611c83565b82525050565b6000610120830160008301516121266000860182612096565b506020830151848203602086015261213e82826120b6565b9150506040830151848203604086015261215882826120b6565b915050606083015161216d60608601826120ef565b5060808301516121806080860182612096565b5060a083015161219360a0860182612096565b5060c08301516121a660c0860182612096565b5060e08301516121b960e08601826120fe565b506101008301516121ce610100860182612096565b508091505092915050565b600060208201905081810360008301526121f3818461210d565b905092915050565b61220481611c83565b811461220f57600080fd5b50565b600081359050612221816121fb565b92915050565b6000806040838503121561223e5761223d611b4f565b5b600061224c85828601611b70565b925050602061225d85828601612212565b9150509250929050565b600081519050919050565b600082825260208201905092915050565b6000819050602082019050919050565b6000610120830160008301516122ac6000860182612096565b50602083015184820360208601526122c482826120b6565b915050604083015184820360408601526122de82826120b6565b91505060608301516122f360608601826120ef565b5060808301516123066080860182612096565b5060a083015161231960a0860182612096565b5060c083015161232c60c0860182612096565b5060e083015161233f60e08601826120fe565b50610100830151612354610100860182612096565b508091505092915050565b600061236b8383612293565b905092915050565b6000602082019050919050565b600061238b82612267565b6123958185612272565b9350836020820285016123a785612283565b8060005b858110156123e357848403895281516123c4858261235f565b94506123cf83612373565b925060208a019950506001810190506123ab565b50829750879550505050505092915050565b6000602082019050818103600083015261240f8184612380565b905092915050565b7f4e487b7100000000000000000000000000000000000000000000000000000000600052602260045260246000fd5b6000600282049050600182168061245e57607f821691505b60208210810361247157612470612417565b5b50919050565b7f5469746c652063616e6e6f7420626520656d7074790000000000000000000000600082015250565b60006124ad601583611bbd565b91506124b882612477565b602082019050919050565b600060208201905081810360008301526124dc816124a0565b9050919050565b7f4465736372697074696f6e2063616e6e6f7420626520656d7074790000000000600082015250565b6000612519601b83611bbd565b9150612524826124e3565b602082019050919050565b600060208201905081810360008301526125488161250c565b9050919050565b60008190508160005260206000209050919050565b60006020601f8301049050919050565b600082821b905092915050565b6000600883026125b17fffffffffffffffffffffffffffffffffffffffffffffffffffffffffffffffff82612574565b6125bb8683612574565b95508019841693508086168417925050509392505050565b6000819050919050565b60006125f86125f36125ee84611a92565b6125d3565b611a92565b9050919050565b6000819050919050565b612612836125dd565b61262661261e826125ff565b848454612581565b825550505050565b600090565b61263b61262e565b612646818484612609565b505050565b5b8181101561266a5761265f600082612633565b60018101905061264c565b5050565b601f8211156126af576126808161254f565b61268984612564565b81016020851015612698578190505b6126ac6126a485612564565b83018261264b565b50505b505050565b600082821c905092915050565b60006126d2600019846008026126b4565b1980831691505092915050565b60006126eb83836126c1565b9150826002028217905092915050565b61270482611bb2565b67ffffffffffffffff81111561271d5761271c611dd1565b5b6127278254612446565b61273282828561266e565b600060209050601f8311600181146127655760008415612753578287015190505b61275d85826126df565b8655506127c5565b601f1984166127738661254f565b60005b8281101561279b57848901518255600182019150602085019450602081019050612776565b868310156127b857848901516127b4601f8916826126c1565b8355505b6001600288020188555050505b505050505050565b600060408201905081810360008301526127e78185611c09565b90506127f66020830184611aff565b9392505050565b7f4f6e6c79206f776e65722063616e2063616c6c20746869730000000000000000600082015250565b6000612833601883611bbd565b915061283e826127fd565b602082019050919050565b6000602082019050818103600083015261286281612826565b9050919050565b7f496e76616c69642070726f706f73616c20494400000000000000000000000000600082015250565b600061289f601383611bbd565b91506128aa82612869565b602082019050919050565b600060208201905081810360008301526128ce81612892565b9050919050565b7f50726f706f73616c20616c726561647920657865637574656400000000000000600082015250565b600061290b601983611bbd565b9150612916826128d5565b602082019050919050565b6000602082019050818103600083015261293a816128fe565b9050919050565b7f416d6f756e74206d7573742062652067726561746572207468616e2030000000600082015250565b6000612977601d83611bbd565b915061298282612941565b602082019050919050565b600060208201905081810360008301526129a68161296a565b9050919050565b7f496e73756666696369656e7420636f6e74726163742062616c616e6365000000600082015250565b60006129e3601d83611bbd565b91506129ee826129ad565b602082019050919050565b60006020820190508181036000830152612a12816129d6565b9050919050565b6000612a2482611a92565b9150612a2f83611a92565b9250828203905081811115612a4757612a46611a9c565b5b92915050565b6000604082019050612a626000830185611aff565b612a6f6020830184611aff565b9392505050565b7f496e76616c696420726563697069656e74206164647265737300000000000000600082015250565b6000612aac601983611bbd565b9150612ab782612a76565b602082019050919050565b60006020820190508181036000830152612adb81612a9f565b9050919050565b600081905092915050565b50565b6000612afd600083612ae2565b9150612b0882612aed565b600082019050919050565b6000612b1e82612af0565b9150819050919050565b7f5472616e73666572206661696c65640000000000000000000000000000000000600082015250565b6000612b5e600f83611bbd565b9150612b6982612b28565b602082019050919050565b60006020820190508181036000830152612b8d81612b51565b9050919050565b7f596f75206861766520616c726561647920766f746564206f6e2074686973207060008201527f726f706f73616c00000000000000000000000000000000000000000000000000602082015250565b6000612bf0602783611bbd565b9150612bfb82612b94565b604082019050919050565b60006020820190508181036000830152612c1f81612be3565b9050919050565b7f4e487b7100000000000000000000000000000000000000000000000000000000600052603260045260246000fd5b6000612c6082611a92565b91507fffffffffffffffffffffffffffffffffffffffffffffffffffffffffffffffff8203612c9257612c91611a9c565b5b60018201905091905056fea26469706673582212204916779bc76b3fd4d9def051f263ddcf03c3bd433ae4f2f24c23a2aa32eab88764736f6c634300081c0033",
  "linkReferences": {},
  "deployedLinkReferences": {}
}